{
  "_format": "hh-sol-artifact-1",
  "contractName": "EmergencyJar",
  "sourceName": "contracts/EmergencyJar.sol",
  "abi": [
    {
      "inputs": [],
      "stateMutability": "nonpayable",
      "type": "constructor"
    },
    {
      "anonymous": false,
      "inputs": [
        {
          "indexed": true,
          "internalType": "address",
          "name": "from",
          "type": "address"
        },
        {
          "indexed": false,
          "internalType": "uint256",
          "name": "amount",
          "type": "uint256"
        }
      ],
      "name": "DepositChange",
      "type": "event"
    },
    {
      "anonymous": false,
      "inputs": [
        {
          "indexed": true,
          "internalType": "address",
          "name": "from",
          "type": "address"
        },
        {
          "indexed": false,
          "internalType": "uint256",
          "name": "amount",
          "type": "uint256"
        }
      ],
      "name": "WithdrawChange",
      "type": "event"
    },
    {
      "inputs": [
        {
          "internalType": "address",
          "name": "_owner",
          "type": "address"
        }
      ],
      "name": "addOwner",
      "outputs": [],
      "stateMutability": "nonpayable",
      "type": "function"
    },
    {
      "inputs": [],
      "name": "depositChange",
      "outputs": [],
      "stateMutability": "payable",
      "type": "function"
    },
    {
      "inputs": [],
      "name": "getJarBalance",
      "outputs": [
        {
          "internalType": "uint256",
          "name": "",
          "type": "uint256"
        }
      ],
      "stateMutability": "view",
      "type": "function"
    },
    {
      "inputs": [],
      "name": "jarCreator",
      "outputs": [
        {
          "internalType": "address",
          "name": "",
          "type": "address"
        }
      ],
      "stateMutability": "view",
      "type": "function"
    },
    {
      "inputs": [],
      "name": "jarName",
      "outputs": [
        {
          "internalType": "string",
          "name": "",
          "type": "string"
        }
      ],
      "stateMutability": "view",
      "type": "function"
    },
    {
      "inputs": [
        {
          "internalType": "address",
          "name": "",
          "type": "address"
        }
      ],
      "name": "jarOwners",
      "outputs": [
        {
          "internalType": "bool",
          "name": "",
          "type": "bool"
        }
      ],
      "stateMutability": "view",
      "type": "function"
    },
    {
      "inputs": [
        {
          "internalType": "address",
          "name": "_owner",
          "type": "address"
        }
      ],
      "name": "removeOwner",
      "outputs": [],
      "stateMutability": "nonpayable",
      "type": "function"
    },
    {
      "inputs": [
        {
          "internalType": "string",
          "name": "_name",
          "type": "string"
        }
      ],
      "name": "setJarName",
      "outputs": [],
      "stateMutability": "nonpayable",
      "type": "function"
    },
    {
      "inputs": [
        {
          "internalType": "address payable",
          "name": "_to",
          "type": "address"
        },
        {
          "internalType": "uint256",
          "name": "_total",
          "type": "uint256"
        }
      ],
      "name": "withdrawChange",
      "outputs": [],
      "stateMutability": "nonpayable",
      "type": "function"
    }
  ],
  "bytecode": "0x608060405234801561001057600080fd5b50336000806101000a81548173ffffffffffffffffffffffffffffffffffffffff021916908373ffffffffffffffffffffffffffffffffffffffff1602179055506100603361006560201b60201c565b610118565b60008054906101000a900473ffffffffffffffffffffffffffffffffffffffff1673ffffffffffffffffffffffffffffffffffffffff163373ffffffffffffffffffffffffffffffffffffffff16146100bd57600080fd5b6001600260008373ffffffffffffffffffffffffffffffffffffffff1673ffffffffffffffffffffffffffffffffffffffff16815260200190815260200160002060006101000a81548160ff02191690831515021790555050565b610e17806101276000396000f3fe6080604052600436106100865760003560e01c80635444081b116100595780635444081b146101475780637065cb4814610172578063c25551a21461019b578063e683b2da146101c4578063eec7da57146101ed57610086565b8063084bf1ec1461008b57806308e247ab146100c8578063173825d9146100f357806344bddaa71461011c575b600080fd5b34801561009757600080fd5b506100b260048036038101906100ad919061097d565b6101f7565b6040516100bf9190610b4a565b60405180910390f35b3480156100d457600080fd5b506100dd610217565b6040516100ea9190610b65565b60405180910390f35b3480156100ff57600080fd5b5061011a6004803603810190610115919061097d565b6102a5565b005b34801561012857600080fd5b50610131610358565b60405161013e9190610bc7565b60405180910390f35b34801561015357600080fd5b5061015c610414565b6040516101699190610b2f565b60405180910390f35b34801561017e57600080fd5b506101996004803603810190610194919061097d565b610438565b005b3480156101a757600080fd5b506101c260048036038101906101bd91906109a6565b6104eb565b005b3480156101d057600080fd5b506101eb60048036038101906101e691906109e2565b61067a565b005b6101f56106ec565b005b60026020528060005260406000206000915054906101000a900460ff1681565b6001805461022490610cfb565b80601f016020809104026020016040519081016040528092919081815260200182805461025090610cfb565b801561029d5780601f106102725761010080835404028352916020019161029d565b820191906000526020600020905b81548152906001019060200180831161028057829003601f168201915b505050505081565b60008054906101000a900473ffffffffffffffffffffffffffffffffffffffff1673ffffffffffffffffffffffffffffffffffffffff163373ffffffffffffffffffffffffffffffffffffffff16146102fd57600080fd5b6000600260008373ffffffffffffffffffffffffffffffffffffffff1673ffffffffffffffffffffffffffffffffffffffff16815260200190815260200160002060006101000a81548160ff02191690831515021790555050565b60008060009054906101000a900473ffffffffffffffffffffffffffffffffffffffff1673ffffffffffffffffffffffffffffffffffffffff163373ffffffffffffffffffffffffffffffffffffffff161480610405575060011515600260003373ffffffffffffffffffffffffffffffffffffffff1673ffffffffffffffffffffffffffffffffffffffff16815260200190815260200160002060009054906101000a900460ff161515145b61040e57600080fd5b47905090565b60008054906101000a900473ffffffffffffffffffffffffffffffffffffffff1681565b60008054906101000a900473ffffffffffffffffffffffffffffffffffffffff1673ffffffffffffffffffffffffffffffffffffffff163373ffffffffffffffffffffffffffffffffffffffff161461049057600080fd5b6001600260008373ffffffffffffffffffffffffffffffffffffffff1673ffffffffffffffffffffffffffffffffffffffff16815260200190815260200160002060006101000a81548160ff02191690831515021790555050565b60008054906101000a900473ffffffffffffffffffffffffffffffffffffffff1673ffffffffffffffffffffffffffffffffffffffff163373ffffffffffffffffffffffffffffffffffffffff161480610595575060011515600260003373ffffffffffffffffffffffffffffffffffffffff1673ffffffffffffffffffffffffffffffffffffffff16815260200190815260200160002060009054906101000a900460ff161515145b61059e57600080fd5b478111156105e1576040517f08c379a00000000000000000000000000000000000000000000000000000000081526004016105d890610ba7565b60405180910390fd5b3373ffffffffffffffffffffffffffffffffffffffff167fee9aa86234b5bd20863f8b5079d5250d4dd7ff556d3503d6775f63449196cf93826040516106279190610bc7565b60405180910390a28173ffffffffffffffffffffffffffffffffffffffff166108fc829081150290604051600060405180830381858888f19350505050158015610675573d6000803e3d6000fd5b505050565b60008054906101000a900473ffffffffffffffffffffffffffffffffffffffff1673ffffffffffffffffffffffffffffffffffffffff163373ffffffffffffffffffffffffffffffffffffffff16146106d257600080fd5b80600190805190602001906106e8929190610833565b5050565b60008054906101000a900473ffffffffffffffffffffffffffffffffffffffff1673ffffffffffffffffffffffffffffffffffffffff163373ffffffffffffffffffffffffffffffffffffffff161480610796575060011515600260003373ffffffffffffffffffffffffffffffffffffffff1673ffffffffffffffffffffffffffffffffffffffff16815260200190815260200160002060009054906101000a900460ff161515145b61079f57600080fd5b60003414156107e3576040517f08c379a00000000000000000000000000000000000000000000000000000000081526004016107da90610b87565b60405180910390fd5b3373ffffffffffffffffffffffffffffffffffffffff167fcfbcaa007c5c03cca8db9e7f933f80a2eb0ddf6a56a5c264283afe06112221bb346040516108299190610bc7565b60405180910390a2565b82805461083f90610cfb565b90600052602060002090601f01602090048101928261086157600085556108a8565b82601f1061087a57805160ff19168380011785556108a8565b828001600101855582156108a8579182015b828111156108a757825182559160200191906001019061088c565b5b5090506108b591906108b9565b5090565b5b808211156108d25760008160009055506001016108ba565b5090565b60006108e96108e484610c13565b610be2565b90508281526020810184848401111561090157600080fd5b61090c848285610cb9565b509392505050565b60008135905061092381610d9c565b92915050565b60008135905061093881610db3565b92915050565b600082601f83011261094f57600080fd5b813561095f8482602086016108d6565b91505092915050565b60008135905061097781610dca565b92915050565b60006020828403121561098f57600080fd5b600061099d84828501610914565b91505092915050565b600080604083850312156109b957600080fd5b60006109c785828601610929565b92505060206109d885828601610968565b9150509250929050565b6000602082840312156109f457600080fd5b600082013567ffffffffffffffff811115610a0e57600080fd5b610a1a8482850161093e565b91505092915050565b610a2c81610c5f565b82525050565b610a3b81610c83565b82525050565b6000610a4c82610c43565b610a568185610c4e565b9350610a66818560208601610cc8565b610a6f81610d8b565b840191505092915050565b6000610a87601b83610c4e565b91507f4465706f73697420736f6d65206368616e676520706c656173652e00000000006000830152602082019050919050565b6000610ac7602183610c4e565b91507f4e6f7420656e6f756768206368616e676520666f72207769746864726177616c60008301527f2e000000000000000000000000000000000000000000000000000000000000006020830152604082019050919050565b610b2981610caf565b82525050565b6000602082019050610b446000830184610a23565b92915050565b6000602082019050610b5f6000830184610a32565b92915050565b60006020820190508181036000830152610b7f8184610a41565b905092915050565b60006020820190508181036000830152610ba081610a7a565b9050919050565b60006020820190508181036000830152610bc081610aba565b9050919050565b6000602082019050610bdc6000830184610b20565b92915050565b6000604051905081810181811067ffffffffffffffff82111715610c0957610c08610d5c565b5b8060405250919050565b600067ffffffffffffffff821115610c2e57610c2d610d5c565b5b601f19601f8301169050602081019050919050565b600081519050919050565b600082825260208201905092915050565b6000610c6a82610c8f565b9050919050565b6000610c7c82610c8f565b9050919050565b60008115159050919050565b600073ffffffffffffffffffffffffffffffffffffffff82169050919050565b6000819050919050565b82818337600083830152505050565b60005b83811015610ce6578082015181840152602081019050610ccb565b83811115610cf5576000848401525b50505050565b60006002820490506001821680610d1357607f821691505b60208210811415610d2757610d26610d2d565b5b50919050565b7f4e487b7100000000000000000000000000000000000000000000000000000000600052602260045260246000fd5b7f4e487b7100000000000000000000000000000000000000000000000000000000600052604160045260246000fd5b6000601f19601f8301169050919050565b610da581610c5f565b8114610db057600080fd5b50565b610dbc81610c71565b8114610dc757600080fd5b50565b610dd381610caf565b8114610dde57600080fd5b5056fea2646970667358221220ed7d155ca0270710a5795cd4a44d63f6fcbb8ab90071e332df036b0c9e0f7d1564736f6c63430008000033",
  "linkReferences": {},
  "deployedLinkReferences": {}
}